:020000040800F2
:10000000085800203102000881190008B5170008BF
:100010007D19000821070008A51D00080000000048
:10002000000000000000000000000000211A00088D
:100030002507000800000000B11900085D1A00083B
:100040004B0200084B0200084B0200084B0200085C
:100050004B0200084B0200084B0200084B0200084C
:100060004B0200084B020008290700084B02000859
:100070004B0200084B0200084B0200084B0200082C
:100080004B0200084B0200084B0200084B0200081C
:100090004B0200084B0200084B0200084B0200080C
:1000A0004B0200084B0200084B0200084B020008FC
:1000B0004B0200084B0200084B0200084B020008EC
:1000C0004B0200084B0200084B0200084B020008DC
:1000D0004B0200084B0200084B0200084B020008CC
:1000E0004B0200084B0200084B0200084B020008BC
:1000F0004B0200084B0200084B0200084B020008AC
:100100004B0200084B0200084B0200084B0200089B
:100110004B0200084B0200084B020008311B00088C
:100120004B0200084B0200084B0200084B0200087B
:100130004B0200084B0200084B0200084B0200086B
:100140004B0200084B0200084B0200084B0200085B
:100150004B0200084B0200084B0200084B0200084B
:100160004B0200084B0200084B0200084B0200083B
:100170004B0200084B0200084B0200080000000080
:100180004B0200084B02000800F002F800F041F8B2
:100190000AA090E8000C82448344AAF10107DA45E2
:1001A00001D100F036F8AFF2090EBAE80F0013F0F3
:1001B000010F18BFFB1A43F001031847283D000048
:1001C000483D0000103A24BF78C878C1FAD85207D9
:1001D00024BF30C830C144BF04680C6070470000C1
:1001E0000023002400250026103A28BF78C1FBD840
:1001F000520728BF30C148BF0B607047642900F028
:10020000F980002070471FB503F01EFE1FBD10B51A
:1002100010BD00F04AFA1146FFF7F5FF01F006FEA7
:1002200000F068FA03B4FFF7F2FF03BC00F070FAC5
:100230000948804709480047FEE7FEE7FEE7FEE77A
:10024000FEE7FEE7FEE7FEE7FEE7FEE704480549B6
:10025000054A064B704700001D1B00088901000875
:10026000084C0020085800200852002008520020A6
:1002700053EA020C00F069802DE9F04B4FF00006C4
:10028000002B1FBFB3FA83F503FA05F424FA05F631
:100290005E4012BF1643B2FA82F502FA05F4C5F1C8
:1002A00020051EBF22FA05FC44EA0C04203556EA5C
:1002B000044C4FEA144418BF641C4FF000084FF080
:1002C0000009904271EB030C39D3002919BFB1FA30
:1002D00081F701FA07F6B0FA80F700FA07F6C7F1DE
:1002E00020071EBF20FA07FC46EA0C062037B6FBA3
:1002F000F4FCA7EB0507103F07F01F0BCBF120061E
:100300002CFA06F60CFA0BFB44BFB3460026202F4E
:10031000A4BF5E464FF0000B5BEA060C08BF4FF02F
:10032000010B19EB0B0948EB0608ABFB027C06FB43
:1003300002CC0BFB03CCC01B71EB0C01C1E70B46DD
:10034000024641464846BDE8F08B13B5084318BF46
:100350004FF0FF300146AFF30080BDE81C4070470E
:100360000FB41CB5084B06AA7B446946009005985B
:1003700000F051F904460020694600F05FF920467C
:100380001CBC5DF814FB0000D10200002DE9F04117
:100390000E460446002020622046E168884730B3BC
:1003A000252805D0D4E901219047206A401CF2E7B6
:1003B000E168204600278847050018D0A5F14100D4
:1003C000192802D820354FF40067324629462046C6
:1003D0002760FFF713FF40B1012804D0F61D26F077
:1003E00007060836D8E7361DD6E72846DAE7206A3A
:1003F000BDE8F0812DE9F04106460024106875291A
:10040000314616A510D0AFF30080002802DA404232
:1004100013A507E031688A0701D512A502E0490754
:1004200004D511A5012401E0AFF3008000210A22C8
:1004300006F1240709E0B0FBF2FCB0FBF2F302FB8B
:100440001C00303078541846491C0028F3D123464C
:100450002A463046BDE8F04100F07FB800000000B9
:100460002D0000002B00000020000000032A40F2B5
:10047000308010F0030C00F0158011F8013BBCF146
:10048000020F624498BF11F801CB00F8013B38BF5E
:1004900011F8013BA2F1040298BF00F801CB38BF6C
:1004A00000F8013B11F0030300F0CD80083AC0F0E2
:1004B000088051F8043B083A51F804CBA0E8081032
:1004C000F5E7121D5CBF51F8043B40F8043BAFF365
:1004D0000080D20724BF11F8013B11F801CB48BFBF
:1004E00011F8012B24BF00F8013B00F801CB48BFF5
:1004F00000F8012B704702F0FF0343EA032242EAAF
:10050000024200F002B84FF0000200B513469446D4
:100510009646203922BFA0E80C50A0E80C50B1F15B
:100520002001BFF4F7AF090728BFA0E80C5048BF6F
:100530000CC05DF804EB890028BF40F8042B08BF0D
:10054000704748BF20F8022B11F0804F18BF00F809
:10055000012B70477047704770472DE9F0470D46F3
:1005600099469246044600F124080168880604D59D
:10057000E06921F01001216000E00120A84201DDC6
:10058000471B00E00027A1697A1902EB0900081A4D
:10059000A0612078C00602D42046AFF30080002678
:1005A00008E0D4E901211AF806009047206A401CAF
:1005B000761C20624E45F4DB2078C0060AD5204622
:1005C000AFF3008006E0D4E9012130209047206A93
:1005D000401C2062381EA7F10107F4DC07E0D4E9D3
:1005E000012118F805009047206A401C2062281E4F
:1005F000A5F10105F3DC2046AFF30080207800066A
:1006000002D50220BDE8F0870120FBE701694A1C02
:1006100002610878704700B58FB0CDE90131002143
:10062000059105497944CDE9031011466846FFF765
:10063000ADFE0FB000BD0000E5FFFFFF0A6802F845
:10064000010B0A60704710B5203AC0F00B80B1E88A
:100650001850A0E81850B1E81850A0E81850203AF7
:10066000BFF4F5AF5FEA027C24BFB1E81850A0E800
:10067000185044BF18C918C0BDE810405FEA827C1A
:1006800024BF51F8043B40F8043B08BF7047D20731
:1006900028BF31F8023B48BF11F8012B28BF20F8D2
:1006A000023B48BF00F8012B7047754600F02CF85C
:1006B000AE4605006946534620F00700854618B04F
:1006C00020B5FFF7C3FDBDE820404FF000064FF016
:1006D00000074FF000084FF0000BAC46ACE8C00933
:1006E000ACE8C009ACE8C009ACE8C00921F00701DA
:1006F0008D46704710B50446AFF300802046BDE834
:100700001040FFF78FBD0000004870471000002028
:1007100001491820ABBEFEE726000200704700002A
:10072000FEE700007047000080B5102000F01EF8C2
:1007300080BD0000EFF3108072B600BFFEE700003E
:10074000B0B5044600F0F2F8054640F20400C2F2EB
:1007500000000078611C18BF044400BF00F0E6F8F8
:10076000401BA042FAD3B0BD7047000080B543F6ED
:100770001441C4F201010A68024208BF80BD08604A
:10078000FFF7F2FF80BD00002DE9F04F83B000F1CC
:100790003E4202F1FF724FEAB22241F60047019257
:1007A000C4F2020708224FF0010E00254FF0000AA4
:1007B0004FF00008B84208BF072200920AE000BFCD
:1007C00008F101080AF1040AB8F1100F05F1020559
:1007D00000F0A2800C680EFA08FB14EA0B09EFD0B7
:1007E0004C6804F0030CACF1010EBEF1010F12D8FD
:1007F00082680323CE6803FA05F7BA4306FA05F7C1
:100800003A4382604268C4F3001722EA0B0207FAF7
:1008100008F73A434260BCF1030F1CD0C2680323BF
:100820008E6803FA05F7BA4306FA05F73A43BCF1B6
:10083000020FC2600FD16FF0030202EA58020244B5
:100840000AF01C060F23176A03FA06F40B69A74384
:10085000B3403B431362026803234F68AB409A43A3
:1008600007F00303AB401A43FB004FF0010E026098
:10087000A6D5002243F644030292C4F202031A688A
:1008800043F6004442F480421A601A68C4F201043C
:1008900002F480420292029A28F003024FF6084BBB
:1008A0002244CFF6FF7B52F80B300AF00C070F26DC
:1008B000BE4023EA060C019B009E072B38BF1E4654
:1008C00006FA07F747EA0C0342F80B3022684B6838
:1008D00042EA0907DE0358BF22EA09072760626877
:1008E0009E0342EA090758BF22EA09076760A26827
:1008F000DE0242EA090758BF22EA0907A76043F669
:100900000C47C4F201073A689B0242EA090358BF48
:1009100022EA09033B6053E703B0BDE8F08F000013
:10092000002A08BF090481617047000044F2284092
:10093000C2F2000000687047F0B581B0B0B3044661
:1009400090F83D0028B9002084F83C00204600F0D3
:10095000BFF8242084F83D002068016821F00101DF
:100960000160016841F400410160016821F4004127
:10097000016000F06BFA48F28041C0F21E0140F6BF
:100980000012656888424FF00001C0F23D0248F253
:10099000A16C4FF0000338BF01219042C0F2010C5E
:1009A00038BF0123654538BF0B4613B1012001B0A4
:1009B000F0BD4DF68361C4F21B31A0FB011221682A
:1009C0004FEA924E4B684FF4967623F03F0343EA8A
:1009D00092434B6044F6D3530F6A0EFB06F6C1F206
:1009E0006203A6FB033627F03F03B709654538BF0E
:1009F000970C7A1C1A430A62CA6948F2A0674CF63F
:100A0000FF73C0F20107BD4222EA030C0AD8013885
:100A10006A00B0FBF2F001306FF31F30042898BF7A
:100A200004202BE0A368A0F1010E9BB119206843BC
:100A3000BEFBF0F00422013062F31F30000512D03B
:100A40009BB119206843BEFBF0F00422013062F331
:100A50001F3011E005EB4500BEFBF0F001306FF3F5
:100A60001F300005ECD1012008E005EB4500BEFB7E
:100A7000F0F001306FF31F3040F4004040EA0C000A
:100A8000C8610868D4E9072320F0C0001043184368
:100A90000860886848F2FF3204F10C0790438CCF5D
:100AA00018431043A6698860C86820F0FF003843E7
:100AB0003043C860086840F0010008600020202131
:100AC000206484F83D10206384F83E0001B0F0BD3E
:100AD000B0B586B045F200410068C4F200010024C0
:100AE00088420594CDE903440294019401D006B0F4
:100AF000B0BD43F630050094C4F20205286840F00A
:100B000002002860286800F0020000900098C020D1
:100B100001901220029001200390032004900420F1
:100B2000059001F5D83001A9FFF72EFE0094286941
:100B300040F400102861286900F40010009000982B
:100B400006B0B0BD40F2040044F22841C2F20000F9
:100B5000C2F2000100780A68104408607047000083
:100B600080B543F60040C4F20200016841F4007110
:100B70000160016841F480610160016841F48071A5
:100B80000160032000F088F8002000F005F800F074
:100B90004BF8002080BD000010B586B0014637201C
:100BA0000022002400F068F8372000F061F843F6D6
:100BB00040000194C4F20200016841F0200101608C
:100BC0000068694600F020000190019801A800F03B
:100BD00017F900F03BF94DF683614000C4F21B3178
:100BE000A0FB01014FF0FF3000EB914140F22810D3
:100BF00041F20042C2F20000C4F2000240F2E733C8
:100C0000C0E90021C0E90243046100F0B5FB10B166
:100C1000012006B010BD40F22810C2F2000000F022
:100C2000DBFB06B010BD000080B582B0002043F6AB
:100C300040010190C4F202014A6842F480424A60D5
:100C40004A6802F480420192019A009008680022EA
:100C500040F08050086008680F2100F0805000903C
:100C600000986FF0010000F007F802B080BD0000AE
:100C700080B501F099F880BD70B514460D46064662
:100C800001F0A2F82946224600F07CFE01463046DB
:100C900001F0A2F870BD000080B501F0B7F880BD8A
:100CA0002DE9F041002800F08B8043F60808C4F2DB
:100CB00002080446D8F8F8030D4600F00700884201
:100CC00007D288F8F853D8F8F80300F00700A842D4
:100CD00076D12068810717D5410705D5D8F80010CF
:100CE00041F4E051C8F80010010705D5D8F800100C
:100CF00041F46041C8F80010D8F80010A26821F053
:100D0000F0011143C8F80010C0073FD1D8F8F8032C
:100D100000F00700A84207D988F8F853D8F8F8037C
:100D200000F00700A8424BD12068410707D5D8F84A
:100D30000010E26821F4E0511143C8F800100007E8
:100D400008D5D8F80000216920F4604040EAC100CD
:100D5000C8F8000000F09EF8D8F8001043F6626270
:100D6000C1F30311C0F60002515C40F2000220FA08
:100D700001F140F20800C2F200000068C2F2000275
:100D80001160FFF709FF0020BDE8F0816068811E57
:100D9000022907D258F8081C89015CBF0120BDE870
:100DA000F08110E0012807D158F8081C89035CBFC6
:100DB0000120BDE8F08106E058F8081C890702D43C
:100DC0000120BDE8F081D8F8001021F003010843AC
:100DD000C8F80000FFF7AAFD064641F2883700BFB9
:100DE000D8F80000616800F00C00B0EB810F8DD0E6
:100DF000FFF79CFD801BB842F2D90320BDE8F081CB
:100E00000F22026043F60802C4F20202136803F0E4
:100E100003034360136803F0F0038360136803F473
:100E2000E053C360D2F800C04FF4E05303EADC03A0
:100E30000361D2F8F80300F0070008607047000073
:100E400040F20000C2F200000068704780B5FFF772
:100E5000F7FF43F60801C4F20201096843F6726223
:100E6000C1F38221C0F60002515CC84080BD000081
:100E700080B5FFF7E5FF43F60801C4F202010968F7
:100E800043F67262C1F34231C0F60002515CC840C1
:100E900080BD000010B543F60404C4F2020460688B
:100EA00000F00C0142F200400829C0F2F40007D023
:100EB000042918BF10BD41F20020C0F27A0010BD15
:100EC000216801F03F02216823684902C3F38811B9
:100ED00005D4A1FB00010023FFF7CAF906E041F2A7
:100EE0000020C0F27A004843B0FBF2F021680222F1
:100EF000C1F3014102EB4101B0FBF1F010BD000074
:100F00002DE9F04182B0002800F0A280044600786C
:100F100043F60006C007C4F2020643D0B06800F0F2
:100F20000C00042805D1306880033BD56068C8BB3D
:100F30008EE0B06800F00C00082802D17068400212
:100F4000F1D46568B5F5A02F0AD0B5F5803F0BD078
:100F5000306820F480303060306820F4802006E073
:100F6000306840F480203060306840F48030306079
:100F7000FFF7DCFC002D054611D000BF3068800370
:100F800010D4FFF7D3FC401B6428F7D922E100BF3F
:100F9000FFF7CCFC401B64284FF0030055D83068A5
:100FA0008003F5D4207880071AD5B06810F00C0FB4
:100FB00009D0B06800F00C00082840F08A80706802
:100FC000400200F186803068800702D5E068012881
:100FD0003ED13068216920F0F80040EAC10030605D
:100FE0002078000738D4207840074CD4A5695DB339
:100FF000B06800F00C00082840F09E80012D27D03A
:101000007068E16900F480028A4221D1216A00F00F
:101010003F028A421CD147F6C071626A0140B1EBBF
:10102000821F15D1A26A0023CFF6FF7303EBC232F1
:1010300000F440316FF30F02914209D1E16A00F0F0
:101040007060B0EB016F03D1002002B0BDE8F08109
:10105000012002B0BDE8F0816069002840F2000084
:10106000C4F2472057D00121C0F8801EFFF75EFC74
:10107000054600BF706F8007B5D4FFF757FC401BD3
:101080000228F7D9A6E0306C10F080580AD1002071
:101090000190306C40F080503064306C00F0805033
:1010A0000190019847F20007C4F200073868C005B4
:1010B00024D4386840F480703860FFF737FC054668
:1010C0003868C0051AD4FFF731FC401B0228F7D955
:1010D00080E0E068002851D00020C4F247200121C0
:1010E0000160FFF723FC0546306880073FF571AFCC
:1010F000FFF71CFC401B0228F6D96BE0A568052D04
:1011000050D0012D52D0306F20F001003067306F89
:1011100020F004004DE00021C0F8801EFFF706FC1F
:10112000054600BF706F80077FF55DAFFFF7FEFBE0
:10113000401B0228F6D94DE00027C4F247270020C3
:101140003866FFF7F3FB022D05460BD130688001AE
:1011500058D5FFF7EBFB401B02284FF00300F5D9F1
:1011600073E700BF306880017FF56EAFFFF7DEFBED
:10117000401B02284FF00300F4D966E70020C4F2B8
:10118000472000210160FFF7D1FB0546306880074A
:101190007FF526AFFFF7CAFB401B02284FF0030084
:1011A000F4D952E7306F40F004003067306F40F000
:1011B00001003067FFF7BAFB002D054641F2883782
:1011C00014D000BF306F800713D4FFF7AFFB401B74
:1011D000B842F7D9032002B0BDE8F081FFF7A6FBC3
:1011E000401BB8424FF003003FF62FAF306F80072F
:1011F000F4D4B8F1000F7FF4F9AE306C20F08050D9
:101200003064F3E604F11C052FCD08430021CFF62E
:10121000FF7140EA821001EBC3316FF30F0140EA26
:1012200005600843706001203866FFF77FFB0446C5
:10123000306880013FF508AFFFF778FB001B0228FC
:101240004FF00300F4D900E770B538B10446406AA6
:1012500030B10020206104F1140007E0012070BDCE
:101260006068B0F5827F03D004F11C0000210160AA
:101270000026A66294F8510020B9204684F85060F8
:1012800000F03CF8022084F8510094E80F0001F4CB
:101290008271056802F4044225F04005056011449E
:1012A00003F400622369114403F0020263691144EC
:1012B00003F00102A369E569114403F400721144CB
:1012C00005F03802256A114405F08002A56A114331
:1012D00005F4005211430160626A042101EA1341DE
:1012E00002F0100211444160C16921F40061C16142
:1012F0000120666584F85100304670BD80B586B027
:1013000043F200010068C4F2010100228842059204
:10131000CDE903220292019201D006B080BD43F6CE
:1013200030000092C4F20200436943F480534361E9
:10133000436903F480530093009B0092036843F0D9
:1013400001030360006800F0010000900098E020B5
:1013500001900220CDE902020320049005200590AF
:1013600001F5504001A9FFF70FFA06B080BD00005B
:101370007047000070470000002804BF012070473C
:1013800010B5044690F83D0028B9002084F83C00D0
:10139000204600F01FF8022084F83D002068211D3F
:1013A00000F0CEFB012084F8460084F83E0084F86B
:1013B0003F0084F8400084F8410084F8420084F83B
:1013C000430084F8440084F8450084F83D00002080
:1013D00010BD00007047000090F83D1001291CBFAF
:1013E00001207047022180F83D10006841F2FF7231
:1013F000C168C4F20002904241F00101C1600DDCFD
:1014000040F2FF71C4F20001884215DCB0F1804F58
:1014100029D040F20041C4F2000122E040F2FF3145
:10142000C4F20101884212DC41F60001C4F200015D
:10143000884218D0002112E040F60001C4F20001F9
:10144000884210D040F60041C4F2000109E044F2A5
:101450000001C4F20101884205D040F20041C4F20B
:101460000101884206D1816801F00701062904BF05
:1014700000207047016841F00101016000207047C1
:101480007047000010B5044600680169890744BF31
:10149000C1685FEA817138D420680169490744BF97
:1014A000C1685FEA41713CD420680169090744BF03
:1014B000C1685FEA017141D420680169C90644BF6F
:1014C000C1685FEAC16145D420680169C9071CBFD2
:1014D000C1685FEAC1714AD120680169090644BF49
:1014E000C1685FEA016149D420680169490644BFC7
:1014F000C1685FEA416148D420680169890644BF38
:10150000C1685FEA816147D410BD6FF002010161DB
:10151000012121778069800745D02046FFF7B0FF81
:1015200047E06FF00401016102212177806910F426
:10153000407F41D02046FFF7A3FF43E06FF0080152
:10154000016104212177C06980073ED02046FFF762
:1015500097FF40E06FF01001016108212177C06919
:1015600010F4407F3AD02046FFF78AFF3CE06FF04E
:1015700001010161204600F03FF8ADE76FF0800106
:1015800001612046FFF7F4FEAEE76FF04001016114
:10159000204600F03DF8AFE76FF0200101612046E2
:1015A000FFF7E8FE10BD204600F022F8204600F0CC
:1015B00021F8002020776FE7204600F019F8204638
:1015C00000F018F8002020776EE7204600F010F8B1
:1015D000204600F00FF8002020776DE7204600F04D
:1015E00007F8204600F006F8002020776CE700009E
:1015F000704700007047000080B5006841F200416C
:10160000C4F20001884208BFFFF79CFA80BD0000C9
:1016100070470000002804BF0120704710B5044641
:1016200090F83D0028B9002084F83C00204600F0E6
:1016300021F8242084F83D002068C16821F400517D
:10164000C160204600F00EFB2068016921F4904142
:101650000161416921F02A014161C16841F40051F1
:10166000C16000202021206484F83D1084F83E10E1
:1016700010BD000080B586B041F200010068C4F2E0
:101680000101002288420592CDE9032202920192D3
:1016900001D006B080BD43F630000092C4F20200D3
:1016A000436943F010034361436903F0100300935F
:1016B000009B0092036843F001030360006800F0A0
:1016C0000100009000984FF4C06001900220CDE925
:1016D0000202032004900720059001F5704001A943
:1016E000FFF752F806B080BD2DE9F04381B0044603
:1016F00090F83D0020280BD10E4600294FF0010044
:1017000055D01746002A52D094F83C00012803D146
:10171000022001B0BDE8F083012084F83C004FF0C6
:10172000000921201D46C4F8409084F83D00FFF7D1
:10173000FDF8A784E784A1680746B1F5805F07D16B
:10174000206900281CBF30464E46B046064601E0E0
:101750004FF0000884F83C9007E000BF16F8010B3A
:1017600021684860E08C0138E084E08C80B120463C
:1017700080213A462B4600F0E3FA80B9002EEDD1E5
:1017800038F8020B21686FF35F2048600026E9E714
:10179000204640213A462B4600F0D2FA18B10320E9
:1017A00001B0BDE8F083202084F83D00002001B0A6
:1017B000BDE8F083FEE7000080B543F6D462C0F6D2
:1017C00000020120012100F0AFFB44F60441C2F207
:1017D0000001086041F64D2043F67C62C0F600002F
:1017E000C0F60002002100F001FC40F27401C2F2D8
:1017F0000001086041F6552043F6A062C0F60000E3
:10180000C0F60002002100F0F1FB40F27801C2F2C4
:101810000001086080BD000070B586B0002643F668
:1018200030000596CDE90366CDE901660096C4F265
:1018300002000168002441F0800101600168C4F2E7
:10184000020401F0800100910099009601680022D5
:1018500041F0010101600168082501F001010091DA
:1018600000990096016841F00201016000680821BA
:1018700000F00200009000982046FFF751F8019513
:10188000012001ADCDE90206204629460496FEF767
:101890007BFF102001900020C1F22100CDE902065B
:1018A00020462946FEF770FF0A2005210022FFF797
:1018B000E3F90A20FFF7DCF906B070BD80B540F20D
:1018C0007C0045F20041C2F20000C4F2000141F682
:1018D000802200234FF4804CC0F2060280E80E0004
:1018E000C0E9033CC0E90533C0E90733FFF724F83A
:1018F000002818BFFEF71EFF80BD000080B540F233
:10190000D00043F20001C2F20000C4F201014FF422
:101910008272002380E80E0000F114014FF4007C75
:101920004FF0180E81E808500A21C0E90333C0E9DE
:101930000833C0E90A31FFF787FC002818BFFEF71B
:10194000F9FE80BD80B540F2701041F20001C2F294
:101950000000C4F2010100234FF00C0C4FF4E132FF
:1019600080E80E00C0E90333C0E905C3C361FFF797
:1019700051FE002818BFFEF7DDFE80BDFEE7000027
:10198000FEE7000000F0070080F00703042B28BFEB
:1019900004234FF0FF3C03380CFA03F338BF002058
:1019A000994381400CFA00F022EA00000843704796
:1019B000EFF30980BFF36F8F154B1A681EF0100FFD
:1019C00008BF20ED108A20E9F04F10602DE90900D2
:1019D0004FF0500080F31188BFF34F8FBFF36F8F2C
:1019E00001F04AFB4FF0000080F31188BDE80900C8
:1019F00019680868B0E8F04F1EF0100F08BFB0EC8F
:101A0000108A80F30988BFF36F8F704700BF00BF53
:101A1000A8020020000000000000000000000000FC
:101A2000074B19680868B0E8F04F80F30988BFF3E6
:101A30006F8F4FF0000080F31188704700BF00BF28
:101A4000A802002080B500F0D9F980BD012000F087
:101A50002DFAFBE7012000F029FAFBE780B54EF2F2
:101A60001000CEF20000006801F0A0FF012818BFAE
:101A700001F0DAFB80BD000070B592B006AC2046E4
:101A80003021FEF740FD002543F640000595CDE9E5
:101A90000355CDE901550095C4F202000168022604
:101AA00041F080510160006800F080500090009883
:101AB00047F200000095C4F20000016841F4804143
:101AC00001600068A82100F4804000900098012087
:101AD00006904FF4803007904FF480000D90042062
:101AE0000E90119020460C96CDE90F16FFF708FADC
:101AF00088B90F20CDE901064FF4A05004904FF4AF
:101B00008050059001A805210395FFF7C9F800282A
:101B100004BF12B070BDFEF70DFE00004EF68850F7
:101B2000CEF20000016841F47001016070470000CE
:101B300080B540F22810C2F20000FFF7A3FC80BD80
:101B400010B540F6FF3E0368C4F2000E40F2004CB0
:101B50007045C4F2010C0FDCB0F1804F19D040F297
:101B60000042C4F20002904213D040F60002C4F2D8
:101B7000000290420DD010E040F60042C4F2000294
:101B8000904206D0604504D00022C4F20102904287
:101B900003D14A6823F07003134341F6FF72C4F285
:101BA000000290420DDC70451FDCB0F1804F41D047
:101BB00040F20042C4F2000290423BD040F60002E4
:101BC00021E043F6FF72C4F20102904220DC42F2AF
:101BD0000002C4F2000290422CD00022C4F20102A2
:101BE000904227D0604525D028E040F60042C4F25C
:101BF000000290421ED041F60002C4F20002904260
:101C000018D041F60042C4F20002904212D015E012
:101C100044F20002C4F2010290420BD044F60002EA
:101C2000C4F20102904205D044F20042C4F2010223
:101C3000904203D1CA6823F44073134323F0800217
:101C40004B69D1F800E08C681A430260C46240F42A
:101C50008062C0F828E0624504BF09690163012180
:101C6000416110BD10B504460068D4E902C2236981
:101C7000016921F4405111430161626943EA0C0199
:101C8000E3691143C268194349F20C639A43114353
:101C9000C1604169A26921F4407141F200431143DE
:101CA00040F48062C4F201039A42416102D1FFF71D
:101CB000DFF801E0FFF7CAF8E16963681922B1F5BE
:101CC000004FA0FB02011CD15A00DB0FFEF7D0FA37
:101CD00048F21F51C5F2EB11A0FB01235A096FF026
:101CE000630302FB0300322303EBC000A0FB0101EE
:101CF0004FF4F87000EA111000EB0210C1F342112A
:101D00001AE09A009B0FFEF7B3FA48F21F51C5F292
:101D1000EB11A0FB01235A096FF0630302FB0300E0
:101D2000322303EB0010A0FB0101F02000EA511068
:101D300000EB0210C1F3431122680843906010BD0C
:101D40002DE9F0410446006800680840884202D14D
:101D50000020BDE8F0811D460E4690465F1C04E061
:101D6000206800683040B042F2D0002FF8D02DB18A
:101D7000FEF7DCFDA0EB0800A842F1D92068C1689D
:101D800021F4D071C160416921F00101416120203D
:101D900084F83D0084F83E00002084F83C000320D5
:101DA000BDE8F081FEE70000002848BF704700F062
:101DB0001F01012202FA01F14EF200124009CEF297
:101DC000000242F8201070474EF60C50CEF2000090
:101DD0000068C0F3022070474EF6145300F00F0263
:101DE000CEF2000309011A4400F16043B0F1FF3F55
:101DF000C8BF03F564421170704700004EF61F50D3
:101E0000CEF2000000210170704700004EF60C5128
:101E1000CEF200010A684FF6FF031A4060F30A226F
:101E200042F0806040F0FD7008607047FEF798FE59
:101E3000FFF722FEFFF7F0FCFFF784FDFFF73EFD02
:101E4000FFF75CFD00F042F8FFF7B6FC00F052F837
:101E500040F2207444F6E22640F27017C2F2000409
:101E60000BA5C0F60A66C2F2000700BF204629464D
:101E70003246FEF775FA82B2384621464FF6FF73B6
:101E8000FFF732FC4FF47A70FEF75AFCEEE700BF22
:101E90006675636B666768686868686868686868BC
:101EA00020202020202025640A000000EFF3058177
:101EB00000291CBF6FF005007047002804BF0020F8
:101EC000704780B501F004F8002080BDEFF3058075
:101ED00000281CBF6FF00500704740F27000C2F28E
:101EE00000000168002911BF4FF0FF30012101609F
:101EF0000020704710B5EFF3058000281CBF6FF07D
:101F0000050010BD40F27004C2F2000420680128F0
:101F10001CBF4FF0FF3010BDFFF794FD0220206082
:101F200001F050F8002010BD70B582B00D4685421A
:101F30004FF00006EFF3058155D8002853D0002953
:101F400051D114469AB1A36863B1E66800224F2EBE
:101F50004FF0000188BF0122502E38BF01214F2EC3
:101F600007D833B9E168002918BF012100E000213A
:101F7000002209B1002636E0012809D172B1A36818
:101F80000326012000210022009601F0D3F90AE087
:101F9000DAB1A268294601F081F919E00120002197
:101FA000032201F0A3F90646002D18BF002E10D021
:101FB000304600210022002301F048FA012808D011
:101FC000304600F035FF002603E0294601F044F9D1
:101FD00006463EB1002C14BF21680021304600F0B7
:101FE00013FF00E00026304602B070BD70B584B02B
:101FF0008E46002100280391EFF3058146D0002989
:1020000044D1FAB19369002B08BF1823382B16D896
:102010001179C90713D15569946811684FEA950C75
:10202000002D08BF4FF0800CFCB1D6685C2E1BD38E
:10203000D5B11569C5B10024012555B91BE00020B3
:1020400004B070BD0124002118234FF0800C00253E
:102050008DB1946812690294CDE9003262467346EC
:1020600001F068FC039011E00CB9D4689CB1002524
:102070000024002DEDD14CB103AC00931FFA8CF27B
:102080007346019401F022FC012802D1039804B0A8
:1020900070BD0020E6E71469B4FA84F46409D6E759
:1020A000F0B581B00D4644F6F43140F2A826C2F2F4
:1020B0000001C2F200060F6831680446081D00F0F6
:1020C00061FD601C0AD14DB13068011D44F6CC3071
:1020D000C2F2000000F0B2FD01B0F0BD3068E419BA
:1020E00044600AD340F2B820C2F2000000683168B0
:1020F000043100F085FD01B0F0BD40F2B020C2F225
:10210000000000683168043100F07AFD44F6583070
:10211000C2F2000001688C4238BF046001B0F0BD1B
:1021200070B5044600F0A2FD44F22C40C2F200005B
:10213000016840F2A82501310160C2F2000529685A
:1021400044F6C036C2F2000641B1306860B9286872
:10215000E16AC06A884298BF2C6005E02C60006884
:10216000012801D100F0C4F944F23840C2F2000065
:10217000016801310160616444F23C41C2F2000136
:10218000E06A0A68904288BF086040F2C02100EB14
:102190008000C2F2000101EB8000211D00F04EFD25
:1021A00000F088FD306880B12868E16AC06A884222
:1021B00028BF70BD4EF60450CEF200004FF08051A3
:1021C0000160BFF34F8FBFF36F8F70BD70B582B0EA
:1021D00000F04CFD44F6F836C2F20006306850BB01
:1021E00044F6F824C2F20004204600F0F9FC44F65C
:1021F0000C35C2F20005284600F0F2FC40F2AC209B
:10220000C2F20000046040F2BC20C2F2000040F2C2
:10221000B41240F2542305600025C2F20002C2F25B
:1022200000030A201021009501F084F8306010B1FD
:1022300003A100F0E9FD00F03DFD02B070BD00BF5C
:10224000546D725100000000F0B581B044F2304589
:10225000C2F200052868E0B144F6E03644F22C47AB
:10226000C2F20006C2F2000700F000FDF068C46888
:10227000201D00F087FC3868013838602868013874
:10228000286000F017FD204600F058F82868002864
:10229000EAD101B0F0BD000080B5026C002A08BF91
:1022A00080BDD0E902C31344C360634524BF036803
:1022B000C360C36808461946FEF7D8F880BD000021
:1022C00070B5866B036C0446E3B115461AB3E0683B
:1022D0001A46FEF7CBF8E168206C2268091A914291
:1022E000E16003D2A16840420844E060A81EB0FA51
:1022F00080F040093146002E18BF01210840361AEF
:10230000002516E02068002598B9A06801F012FCAD
:10231000A56005460DE060681A46FEF7A7F8216C37
:10232000D4E90102002508446060904224BF20687F
:102330006060711C2846A16370BD000010B50446A2
:1023400090F85900022808BF10BD012803D030B909
:10235000206B00F0C7FC204600F0C4FC10BD4FF01D
:10236000500080F31188BFF36F8FBFF34F8F00BF12
:10237000FEE7000040F2AC21C2F2000109680A68E1
:10238000B2FA82F35B090360002A0EBF0020C8681E
:102390000068704740F62000C2F20000C21D22F023
:1023A000070210F0070CA0EB020318BF104644F61A
:1023B000C432C2F200020021C2E900014FF470529F
:1023C000BCF1000F18BF03F570520244083A40F206
:1023D000B42322F00702C2F200031A60C2E900111E
:1023E000111A1A68C0E9002144F65430C2F2000004
:1023F000016044F64C30C2F20000016044F6203027
:10240000C2F20000012101707047000040F2C024B8
:102410004EF60455C2F20004CEF200054FF080568D
:10242000FFF712FF20680228FAD32E60BFF34F8F08
:10243000BFF36F8FF4E70000B0B5049D002914BF0F
:102440002A602D60C5E90F01284601211C4600F0D5
:10245000BDFF85F84C40B0BD2DE9F0470A9C82468F
:10246000206B16460F46DDE908599100A5229846D3
:10247000FEF741F8206B00EB8600A0F1040020F08D
:1024800007067FB104F13400002100BF7A5C42549A
:102490007A5C1AB10F2901F10101F7D3002084F809
:1024A000430002E0002084F834000027201D372D6F
:1024B00028BF3725E562C4E9135700F09DFB04F1FE
:1024C000180000F099FBC5F13800A0613046514674
:1024D000424624616462676584F8587000F03EFBF0
:1024E000B9F1000F206018BFC9F80040BDE8F087BF
:1024F000B0B540F2C0250024C2F20005281900F052
:102500006FFB1434B4F58C6FF8D144F62434C2F266
:102510000004204600F064FB44F63835C2F20005A2
:10252000284600F05DFB44F66C30C2F2000000F07B
:1025300057FB44F6E030C2F2000000F051FB44F6D5
:10254000CC30C2F2000000F04BFB40F2B020C2F2EF
:102550000000046040F2B820C2F200000560B0BD87
:1025600080B544F6C432C2F2000200BF11461268C0
:102570008242FBD3D1F804C001EB0C03834203D1A8
:102580004068604448600846D0F804C000EB0C0383
:10259000934201D013460BE040F2B423C2F2000391
:1025A0001B689A4204D0D2E9003E0EEB0C02426056
:1025B0008142036018BF086080BD000080B58C4672
:1025C000014641F804CF9445006108D99A4201D2EE
:1025D0009C4511D240F2AC20C2F2000007E08069B5
:1025E000D21A824208D240F2BC20C2F20000006837
:1025F00000F006FB002080BD012080BD10B5044620
:1026000000F034FBA06BB0FA80F0440900F052FBFC
:10261000204610BD10B5044600F028FBA06BE16B0E
:10262000401AB0FA80F0440900F044FB204610BD87
:1026300008480068006880F308884FF0000080F3C5
:10264000148862B661B6BFF34F8FBFF36F8F00DFA0
:1026500000BF00BF08ED00E070B582B040F2AC22D0
:10266000C2F2000212680546D2680E46D468201DE8
:1026700000F088FA94F82800410704D400F0FE0026
:1026800084F8280010E0A0693246411920462B4604
:10269000FFF794FF40B10026204600212A46002380
:1026A000009601F09DFB20B1216A2046884702B0C8
:1026B00070BD4FF0500080F31188BFF36F8FBFF3F0
:1026C0004F8F00BFFEE700002DE9F04186B044F6D1
:1026D000F837C2F20007386802A900224FF000085C
:1026E00000F0EEFF00286AD001AC02AD0BE000F074
:1026F000FE0086F8280000BF38682946002200F056
:10270000DFFF00285BD00298B0F1FF3F03DCDDE97A
:1027100003200599904702980028EDD4049E706923
:1027200010B1301D00F02EFA204600F0B3F80299E7
:102730000929E1D80246DFE801F0080808052A392E
:102740000808052A96F82800D1E796F82800039B88
:10275000B16940F0010086F8280019443046FFF7BF
:102760002DFF0028C8D0316A3046884796F82800E7
:102770004007C1D50398B16900230A1830460021EB
:10278000CDF8008001F02CFB0028B5D123E096F8AD
:10279000280040F00101039886F82810B06188B144
:1027A000811830461346FFF709FFA5E796F8280081
:1027B00081073FF59CAF304600F094FA9CE706B0E5
:1027C000BDE8F0814FF0500080F31188BFF36F8FA8
:1027D000BFF34F8FFEE74FF0500080F31188BFF337
:1027E0006F8FBFF34F8F00BFFEE7000070B582B060
:1027F0000E46044600F038FC01A800F04BF80199A1
:1028000019B101F029FA02B070BD05464EB9A542D2
:1028100007D301F021FA20462946FFF71DFF02B039
:1028200070BD4EB140F2BC20C2F2000000680068EA
:10283000B0FA80F0420900E0002244F6F830C2F21B
:1028400000000068611B00F021FB01F005FA002880
:10285000D9D14EF60450CEF200004FF08051016005
:10286000BFF34F8FBFF36F8F02B070BD40F2B02047
:10287000C2F200000168096821B10068C068C06840
:10288000406801E04FF0FF3044F65831C2F20001D9
:102890000860704770B5044601F09CF840F2A42629
:1028A000C2F2000631680546884203D200F008F8FB
:1028B000012000E0002020602846356070BD000047
:1028C0002DE9F04182B040F2AC27C2F2000738682F
:1028D000016891B34FF0000809E000BF60603868FC
:1028E0002946246100F08CF93868016829B3C06872
:1028F000C4680668251D284600F044F9216A204670
:10290000884794F828004007EED5A0693044B042CB
:10291000E4D82046002132460023CDF8008001F0A3
:102920005FFA0028E0D14FF0500080F31188BFF328
:102930006F8FBFF34F8F00BFFEE740F2BC21C2F2A2
:1029400000010A6808603A6002B0BDE8F08100004A
:1029500081B00020009040F20C00C2F2000000683C
:102960004FF0500181F31188BFF36F8FBFF34F8F8A
:10297000013001D0FEE700BF00980028FCD001B074
:102980007047000082B001AC2046FFF7F3FC0199CC
:10299000FFF72CFFFFF798FEF6E70000F0B581B0D7
:1029A000044600F063F994F94560012E0FDB04F151
:1029B000240500BF286850B1284601F005F9002819
:1029C00018BF00F0BDFA70B2013E0128F2DCFF260C
:1029D00084F8456000F06EF900F048F994F944700D
:1029E000012F0EDB04F11005286850B1284601F0D4
:1029F000EBF8002818BF00F0A3FA78B2013F0128D5
:102A0000F2DC84F8446000F055F901B0F0BD00003C
:102A10002DE9F04381B0044600F026FB40F2B426D5
:102A2000C2F200063068002808BFFFF7B3FC44F686
:102A30002038C2F2000898F80000002818BF4FF0B4
:102A4000004020420DD0002401F006F960071ED09E
:102A50004FF0500080F31188BFF36F8FBFF34F8F9B
:102A6000FEE7C4B114F0070004F108011EBF081A04
:102A700000F108015FEA41700ED04FF0500080F382
:102A80001188BFF36F8FBFF34F8F00BFFEE7204663
:102A900001B0BDE8F083002144F64C39C2F20009D0
:102AA000D9F800004A1E8242CDD244F6C430C2F2A8
:102AB000000005682F4657F8042F8A4211D22B6870
:102AC0005BB100BF1F4657F8042F28461D468A42B7
:102AD00007D22B68002BF5D103E044F6C430C2F2D4
:102AE000000033689D42AED004682B68521A112A48
:102AF000036010D36818430709D04FF0500080F3EB
:102B00001188BFF36F8FBFF34F8F00BFFEE74260A6
:102B10003960FFF725FD44F654303968D9F80020B4
:102B2000C2F200000368511A9942C9F8001038BF78
:102B3000016098F80000396800284FF0000018BFC5
:102B400041F00041286044F66030C2F200000268A3
:102B500008343960511C016076E70000034642F6F4
:102B60005110C0F600004FF0807C21F0010103E914
:102B700003106FF0020043F8240CA3F1440043F863
:102B8000202C7047D0E9013201699A60D1F804C065
:102B900082688445536008BF4A6000220261086869
:102BA000013808600868704744F24063C2F20003CD
:102BB000036044F24040C2F20000086080201060D0
:102BC0007047000044F69C23C2F20003036044F205
:102BD0009C60C2F2000008604FF480701060704783
:102BE0004FF0FF31024642F8081F00214260C0E961
:102BF000032201607047000000210161704700005E
:102C000080B5D1F800C01CF1010207D000F1080323
:102C10009E465B681A686245FAD901E0D0F810E078
:102C2000DEF8042008614A609160C1F808E0CEF83F
:102C3000041001680131016080BD0000D0F800C0BF
:102C4000436808619A684B608A609A68996051602D
:102C50000CF1010101607047DFF80C00016841F4DC
:102C600070010160704700BF88ED00E04FF0500038
:102C700080F31188BFF36F8FBFF34F8F40F20C00CA
:102C8000C2F2000001684A1C026001B170474EF6B2
:102C90000450CEF200000068000608BF70474FF0F5
:102CA000500080F31188BFF36F8FBFF34F8F00BFC9
:102CB000FEE7000040F20C00C2F20000016839B1EA
:102CC0000139016018BF7047002080F311887047F8
:102CD0004FF0500080F31188BFF36F8FBFF34F8F19
:102CE000FEE70000B0B5002808BFB0BD044644F6BA
:102CF0002030C2F20000007854F8041C002818BFED
:102D00004FF0004008420CD0A4F108052A6892B1A7
:102D10004FF0500080F31188BFF36F8FBFF34F8FD8
:102D2000FEE74FF0500080F31188BFF36F8FBFF3C1
:102D30004F8F00BFFEE721EA000044F8040C00F0CA
:102D400093F944F64C31C2F2000154F8040C0A68BD
:102D5000104408602846FFF703FC44F66430C2F2D2
:102D6000000001680131016000F076FFB0BD000095
:102D70004EF21000CEF2000000210160816040F2AE
:102D80000001C2F20001096844F6D352C1F26202A6
:102D9000A1FB02124FF0FF3101EB921141600721BC
:102DA00001607047EFF30580102814D34EF2F03124
:102DB000CEF20001405C44F22041C2F200010978E9
:102DC000884208D24FF0500080F31188BFF36F8F14
:102DD000BFF34F8FFEE74EF60C50CEF2000044F2E8
:102DE00024410068C2F20001096800F4E0608842F2
:102DF00098BF70474FF0500080F31188BFF36F8F7A
:102E0000BFF34F8FFEE7000044F6803C0022C2F281
:102E1000000C00BF5CF8323023B10132082A08BF31
:102E20007047F7E70CEBC2034CF83210586070475C
:102E300010B558B1044600F013F894F84600002885
:102E400018BF10BD2046FFF74DFF10BD4FF05000DA
:102E500080F31188BFF36F8FBFF34F8FFEE7000041
:102E600044F6803C0021C2F2000C00BF0CEBC10311
:102E70005A68824204D00131082908BF7047F5E73B
:102E800000204CF8310058607047000070B51546BE
:102E90000E460446FFF7EAFE94F84400FF2804BFFC
:102EA000002084F8440094F84500FF2804BF002067
:102EB00084F84500FFF7FEFEA06B28B904F124005A
:102EC00031462A4600F05EF82046FFF767FD70BDE8
:102ED00010B5D8B1044644F23440C2F20000006894
:102EE00048B14FF0500080F31188BFF36F8FBFF3EC
:102EF0004F8F00BFFEE700F0B7F820460021FFF734
:102F0000CFF800F0A9FE002818BF10BD4EF60450FF
:102F1000CEF200004FF080510160BFF34F8FBFF33E
:102F20006F8F10BD44F65C31C2F200010968016088
:102F300044F6F431C2F200010968416070470000B4
:102F400044F60040C2F20000012101607047000019
:102F500010B568B10C4640F2A821C2F20001096820
:102F60001831FFF74DFE20460121FFF799F810BDFB
:102F70004FF0500080F31188BFF36F8FBFF34F8F76
:102F8000FEE70000B0B590B10D4640F2A821C2F2B4
:102F90000001096814461831FFF750FE002C18BFD5
:102FA0004FF0FF3528462146FFF77AF8B0BD4FF0C5
:102FB000500080F31188BFF36F8FBFF34F8F00BFB6
:102FC000FEE7000010B586B0002405A804A903AAF6
:102FD000CDE90444FFF7E8FDDDE90320059900236E
:102FE000CDE9010142F20D40C0F600001CA10094A1
:102FF00000F0A0FC44F65031C2F20001086010B1AC
:1030000000F0B4FE0446601C20D0012C1CD14FF00F
:10301000500080F31188BFF36F8FBFF34F8F44F6DA
:103020005830C2F200004FF0FF31016044F6C0306A
:10303000C2F200000121016044F6F430C2F2000047
:103040000021016000F066F806B010BD4FF050009E
:1030500080F31188BFF36F8FBFF34F8FFEE700BF80
:1030600049444C450000000044F23440C2F20000E4
:10307000016801310160704744F23440C2F200003F
:10308000006830B144F60040C2F200000121016046
:10309000704744F60040C2F20000002144F23C4C6C
:1030A0000160C2F2000CDCF8001040F2C02201EB1B
:1030B0008103C2F2000252F8230048B902EB8300F8
:1030C000A0F11403D9B153F8140901390028F9D03B
:1030D00001EB810002EB800252F8040F4368101DDF
:1030E0008342136001D158681060106840F2A82232
:1030F000C068C2F200021060CCF8001070474FF0B8
:10310000500080F31188BFF36F8FBFF34F8F00BF64
:10311000FEE7000080B582B04EF20040CEF2000023
:103120004CF27021C4F20F11D0F800294B1C9A42C6
:1031300009D14FF0500080F31188BFF36F8FBFF3B8
:103140004F8F00BFFEE7D0F800298A4209D14FF027
:10315000500080F31188BFF36F8FBFF34F8F00BF14
:10316000FEE7017844F220420191FF2101700178CD
:10317000C2F200028DF803109DF8031001F0500117
:10318000117044F22441C2F2000107220A609DF945
:103190000320B2F1FF3F0CDC0A6800BF9DF803304A
:1031A000013A5B008DF803309DF90330002BF5D414
:1031B0000A600A68032A2DD14FF4E06303EA022271
:1031C0000A6001990170D0F8201941F47001C0F82B
:1031D0002019D0F8201941F07041C0F82019FFF7EC
:1031E000C7FD40F20C00C2F2000000210160FFF7B1
:1031F00033FD4EF63470CEF20000016841F04041DC
:103200000160FFF715FAFFF737FFFFF7A1FB00207A
:1032100002B080BD4FF0500080F31188BFF36F8F74
:10322000BFF34F8FFEE7000080B54FF0500080F3F2
:103230001188BFF36F8FBFF34F8F00F0D1FB30B118
:103240004EF60450CEF200004FF080510160002095
:1032500080F3118880BD000010B560B10C4681423A
:1032600013D94FF0500080F31188BFF36F8FBFF375
:103270004F8F00BFFEE74FF0500080F31188BFF37F
:103280006F8FBFF34F8F00BFFEE70021022200F0D7
:103290002DF8002818BF846310BD000010B582B05F
:1032A00058B10C46814212D94FF0500080F311887A
:1032B000BFF36F8FBFF34F8FFEE74FF0500080F3E7
:1032C0001188BFF36F8FBFF34F8F00BFFEE7134628
:1032D0004FF0020C00210022CDF800C000F02AF8C7
:1032E000002818BF846302B010BD0000F0B581B0A3
:1032F000B0B105464843503014460E46FFF788FBF0
:10330000074650B1002007F1500287F846002846D2
:10331000314623460097FFF78FF8384601B0F0BDDD
:103320004FF0500080F31188BFF36F8FBFF34F8FC2
:10333000FEE70000B0B582B068B11D46ABB1F1B98F
:10334000EAB14FF0500080F31188BFF36F8FBFF3E5
:103350004F8F00BFFEE74FF0500080F31188BFF39E
:103360006F8FBFF34F8F00BFFEE74FF0500080F329
:103370001188BFF36F8FBFF34F8F00BFFEE751B1CE
:103380004AB94FF0500080F31188BFF36F8FBFF33D
:103390004F8F00BFFEE750230193019B502B0AD1B2
:1033A000069B019C012485F846400095FFF744F8F0
:1033B000284602B0B0BD4FF0500080F31188BFF333
:1033C0006F8FBFF34F8F00BFFEE7000070B5F8B1FD
:1033D00004460E46FFF74AFC2068D4E90F12002588
:1033E00002FB0103013901FB0201A563C4E90103EA
:1033F000FF20E16084F8440084F8450004F11000E7
:103400007EB1FFF7EDFB04F12400FFF7E9FB18E0C4
:103410004FF0500080F31188BFF36F8FBFF34F8FD1
:10342000FEE7016869B100F0CFFB50B14EF60450E1
:10343000CEF200004FF080510160BFF34F8FBFF319
:103440006F8FFFF737FC012070BD00002DE9F04FB2
:1034500083B00292B8B11D460E460446E9B1022D72
:1034600003D1E06B012840F09A8000F09FFA00BB86
:103470000298F0B14FF0500080F31188BFF36F8FC6
:10348000BFF34F8FFEE74FF0500080F31188BFF37A
:103490006F8FBFF34F8F00BFFEE7206C0028DED098
:1034A0004FF0500080F31188BFF36F8FBFF34F8F41
:1034B000FEE7FFF7DBFBA06B022D58D0E16B8842E3
:1034C00055D304F1100801206F464FF0000B0DF1A9
:1034D00008094FF0805A00BF0299002900F07B8054
:1034E000C00702D03846FFF71DFDFFF7E3FBFFF7EB
:1034F000BBFDFFF7BBFB94F84400FF2808BF84F82E
:1035000044B094F84500FF2808BF84F845B0FFF7A1
:10351000D1FB3846494600F095F900285ED1204697
:10352000FFF778F8A0B102994046FFF711FD204659
:10353000FFF734FA00F090FB78B94EF60450CEF263
:103540000000C0F800A0BFF34F8FBFF36F8F04E0FF
:103550002046FFF723FA00F07FFBFFF787FBA06B05
:10356000022D04D0E16B88424FF00000B4D2204617
:1035700031462A46FEF7A4FE54F8241FC9B120465E
:1035800000F022FB08B34EF60450CEF200004FF0DC
:1035900080510160BFF34F8FBFF36F8F15E04FF085
:1035A000500080F31188BFF36F8FBFF34F8F00BFC0
:1035B000FEE750B14EF60450CEF200004FF08051BD
:1035C0000160BFF34F8FBFF36F8FFFF773FB0120D5
:1035D00003B0BDE8F08FFFF76DFB04E02046FFF776
:1035E000DDF900F039FB002003B0BDE8F08F0000EA
:1035F0002DE9F04381B0E8B11E46914605460F46DD
:1036000009B3022E02D1E86B012837D1FFF7CAFBBC
:10361000EFF311884FF0500080F31188BFF36F8FE4
:10362000BFF34F8FA86B022E19D0E96B884216D3D7
:1036300000203FE04FF0500080F31188BFF36F8F00
:10364000BFF34F8FFEE7286C0028DAD04FF0500010
:1036500080F31188BFF36F8FBFF34F8FFEE795F8AC
:103660004540A86B284639463246FEF729FEFF2C16
:103670000DD0601C85F8450001201BE04FF0500084
:1036800080F31188BFF36F8FBFF34F8FFEE755F8BC
:10369000240F70B1284600F097FA0146B9F1000FE7
:1036A0004FF0010006D000291CBF0120C9F800001E
:1036B00000E0012088F3118801B0BDE8F08300002C
:1036C0002DE9F04F85B0049298B10C4605460029CB
:1036D00000F0A58000F06AF9A8B9049898B14FF0FD
:1036E000500080F31188BFF36F8FBFF34F8F00BF7F
:1036F000FEE74FF0500080F31188BFF36F8FBFF3E8
:103700004F8F00BFFEE705F1240005F1100901907D
:1037100002AF0DF1100A4FF000080AE02846FFF74B
:103720003DF900F099FA2846FEF768FF002840F0BE
:103730008480FFF79BFAD5F838B0BBF1000F1DD09D
:1037400028462146FEF7A8FDABF10100A8632869D1
:1037500070B1484600F038FA50B14EF60450CEF23F
:1037600000004FF080510160BFF34F8FBFF36F8FA8
:10377000FFF7A0FA00200126A0B95FE0049850B13D
:10378000B8F1000F02D13846FFF7CCFB4FF001082B
:10379000012038B952E0FFF78DFA002600200028FA
:1037A0004CD000BFFFF786FAFFF75EFCFFF75EFA2A
:1037B00095F84400FF2804BF002085F8440095F8E0
:1037C0004500FF2804BF002085F84500FFF772FA86
:1037D0003846514600F036F800289FD12846FEF7BB
:1037E0000DFFB0B104990198FFF7B2FB2846FFF72F
:1037F000D5F800F031FA00289BD14EF60450CEF2F5
:1038000000004FF080510160BFF34F8FBFF36F8F07
:103810008FE72846FFF7C2F800F01EFA89E7286C08
:1038200000283FF457AF4FF0500080F31188BFF3EA
:103830006F8FBFF34F8F00BFFEE70026304605B005
:10384000BDE8F08FB0B5D0B10D4611B30446FFF717
:103850000DFA44F6F430C2F2000001682868421CF8
:1038600021D044F65C336268C2F20003D3F800C092
:1038700091421AD323689C4517D0012422E04FF0CF
:10388000500080F31188BFF36F8FBFF34F8F00BFDD
:10389000FEE74FF0500080F31188BFF36F8FBFF346
:1038A0004F8F00BFFEE700240CE0891A884206D93A
:1038B000401A28602046FFF735FB002402E0002074
:1038C00001242860FFF7F6F92046B0BD2DE9F0434A
:1038D00083B007469000984615468946FFF798F84A
:1038E00078B106465C20FFF793F838B104460663CA
:1038F00054B94FF0FF3003B0BDE8F0833046FFF716
:10390000F1F90024002CF4D0DDE90A10002284F83B
:103910005920CDE90010384649462A4643460294CC
:10392000FEF79AFD2046FEF7FBFB012003B0BDE841
:10393000F083000070B586B00B9CCCB10C9E06B332
:103940005C250495049D5C2D25D1049DDDF828C0DF
:10395000022586F8595005AD3463CDE900C50296BD
:10396000FEF77AFD3046FEF7DBFB059806B070BD2A
:103970004FF0500080F31188BFF36F8FBFF34F8F6C
:10398000FEE74FF0500080F31188BFF36F8FBFF355
:103990004F8F00BFFEE74FF0500080F31188BFF358
:1039A0006F8FBFF34F8F00BFFEE7000044F6C030BB
:1039B000C2F200000068002804BF0120704744F2F2
:1039C0003440C2F200000068B0FA80F040094000C4
:1039D0007047000044F6F430C2F2000000687047FF
:1039E0002DE9F04F81B044F23440C2F2000000688B
:1039F00040B144F66830C2F2000001680024013191
:103A0000016092E044F6F430C2F2000001684E1CFE
:103A1000066021D340F2B020C2F2000001680968BC
:103A200049B14FF0500080F31188BFF36F8FBFF39F
:103A30004F8F00BFFEE740F2B822C2F200020168D9
:103A40001368036044F65C301160C2F20000016844
:103A500001310160FEF70AFF44F65831C2F200015D
:103A6000086840F2A82A40F2C0288642C2F2000A42
:103A7000C2F2000801D2002445E040F2B027C2F2B1
:103A8000000738680024006898B344F23C4BC2F247
:103A9000000B19E0D9F82C00DBF80010884288BF31
:103AA000CBF8000000EB800008EB80002946FFF710
:103AB000C5F8D9F82C00DAF80010C96A3A688842CB
:103AC00028BF01241068B8B13868C068D0F80C90DD
:103AD0004D4655F8040F864210D32846FFF752F89A
:103AE000D9F828000028D5D009F11800FFF74AF8C6
:103AF000D0E74FF0FF3005E04FF0FF3044F658318B
:103B0000C2F200010860DAF80000C06A00EB800031
:103B100058F82000012844F60040C2F2000088BF97
:103B200001240068002818BF0124204601B0BDE828
:103B3000F08F0000B0B580B1044640F2A820C2F278
:103B400000000068A0420AD04FF0500080F31188B6
:103B5000BFF36F8FBFF34F8FFEE70020B0BD206D26
:103B600038B3013820654FF0000018BFB0BDE16ADE
:103B7000E26C91421CD0251D2846FFF703F8E06C4B
:103B8000C0F13801A16144F23C41E062C2F200019F
:103B90000A68904288BF086040F2C02100EB8000B4
:103BA000C2F2000101EB80002946FFF747F801202F
:103BB000B0BD4FF0500080F31188BFF36F8FBFF39B
:103BC0004F8F00BFFEE70000B0B5C068C5687DB18B
:103BD00005F118042046FEF7D5FF44F23440C2F246
:103BE0000000006868B144F66C30C2F200001DE0CD
:103BF0004FF0500080F31188BFF36F8FBFF34F8FEA
:103C0000FEE72C1D2046FEF7BDFF44F23C41C2F208
:103C10000001E86A0A68904288BF086040F2C0214B
:103C200000EB8000C2F2000101EB80002146FFF7AB
:103C300005F840F2A821C2F20001E86A0968C96AE1
:103C4000884291BF002044F60041C2F200010120E9
:103C500088BF0860B0BD00002DE9F04F81B044F28C
:103C60003444C2F20004206868B1FEF7FFFF206808
:103C700001382060206880B10024FFF71BF820463F
:103C800001B0BDE8F08F4FF0500080F31188BFF312
:103C90006F8FBFF34F8F00BFFEE744F22C40C2F29C
:103CA0000000006800285DD044F66C36C2F20006C1
:103CB000306844F60048C2F2000890B344F23C4732
:103CC00040F2C02940F2A82BC2F20007C2F200095C
:103CD000C2F2000B4FF0010AF068C56805F1180048
:103CE000FEF750FF2C1D2046FEF74CFFE86A3968AE
:103CF000884288BF386000EB800009EB80002146D5
:103D0000FEF79CFFE86ADBF80010C96A884228BF0A
:103D1000C8F800A030680028DED1002D18BFFEF7DB
:103D2000A5FD44F66834C2F20004256855B10126A9
:103D3000FFF756FE002818BFC8F80060013DF7D114
:103D400000202060D8F8000070B14EF60450CEF28A
:103D500000004FF080510160BFF34F8F0124BFF38B
:103D60006F8F8AE7002488E7002486E780B586B055
:103D7000FEF72CFA44F6F830C2F20000006808B3EF
:103D80000020CDE9040005A804A903AAFEF71AFF44
:103D9000DDE903200221DDF814C0CDE9001042F670
:103DA0008510C0F600000CA10023CDF808C0FFF775
:103DB000C1FD44F6FC31C2F20001086010B10120DF
:103DC00006B080BD4FF0500080F31188BFF36F8FB5
:103DD000BFF34F8FFEE700BF546D72205376630030
:103DE00010B584B0A8B144F6F834C2F20004844699
:103DF0002068C0B10529CDE90012CDF808C015DC56
:103E0000FFF7D4FD01462068022916D1069A6946BB
:103E100015E04FF0500080F31188BFF36F8FBFF3B0
:103E20004F8F00BFFEE7002004B010BD69461A4660
:103E30000023FFF7DDFB04B010BD6946002200231C
:103E4000FFF704FB04B010BDF1EE100A4FF6FF714E
:103E5000C0F2C03120EA010040F04070E1EE100AEB
:103E60007047000000000000000001020304060784
:103E7000080900000000010203040000C43E00081D
:103E80000000000000000000000000000000000032
:103E90000002000018000000000000000000000008
:103EA000CA3E000800000000000000000000000002
:103EB00000000000000200000800000000000000F8
:103EC00000000000615461736B00645461736B0007
:103ED00078780000D03E00080000000000000000DC
:103EE00000000000083F0008000000201000000053
:103EF000C4010008183F000810000020F857000017
:103F0000E0010008000000000024F40001000000AF
:083F100010000000AAAAAAAAF1
:040000050800018965
:00000001FF
